:100000000C9451000C9479000C9479000C947900B4
:100010000C9479000C9479000C9479000C9479007C
:100020000C9479000C9479000C9479000C9479006C
:100030000C9479000C9479000C9479000C9479005C
:100040000C9479000C9479000C9479000C9479004C
:100050000C9479000C9479000C9479000C9479003C
:100060000C9479000C9479000C9479000C9479002C
:100070000C9479000C9479000C9479000C9479001C
:100080000C9479000C9479000C9479000C9479000C
:100090000C94DB020C9465030C943F030C947900E0
:1000A000AD0411241FBECFEFCDBFDFE3DEBF18E2EA
:1000B000A0E0B8E2E8E3FBE002C005900D92A430B6
:1000C000B107D9F728E2A4E0B8E201C01D92A33B32
:1000D000B207E1F710E0C1E5D0E004C02197FE01CE
:1000E0000E943105C035D107C9F70E94AE030C94B8
:1000F00051050C940000AF92BF92CF92DF92EF9225
:10010000FF920F931F93CF93DF936C017B018B01C1
:10011000040F151FEB015E01AE18BF08C017D10711
:1001200059F06991D601ED91FC910190F081E02D9B
:10013000C6010995892B79F7C501DF91CF911F91F0
:100140000F91FF90EF90DF90CF90BF90AF90089508
:10015000FC0154894589252F30E0842F90E0821BD3
:10016000930B541710F0CF96089501970895FC0152
:1001700092898389981761F0A389AE0FBF2FB11DB3
:1001800059968C9193899F5F9F73938B90E008950C
:100190008FEF9FEF0895FC0192898389981731F0C2
:1001A0008389E80FF11D818D90E008958FEF9FEF17
:1001B0000895FC0192892389892F90E0805C9F4FEC
:1001C000821B91098F7399270895CF93DF93EC01D8
:1001D000E881F9810680F781E02D0995EC85FD85A0
:1001E00086818F738683EC85FD8585818F758583F8
:1001F0008B898A8B198ADF91CF910895CF93DF93F2
:10020000FC0194898589C485D585981306C08D81A4
:100210008F7D8D83DF91CF910895A589AE0FBF2F7C
:10022000B11DA75ABF4F2C91858990E001968F731D
:100230009927858B80E48C83A485B58512962C93B1
:10024000948985899813E6CFA485B58515968C91F8
:1002500015978F7D15968C9387898823D9F2808D89
:1002600080931301178AD6CFDC011C96ED91FC9187
:100270000FB607FE03C0258125FD04C0248125FD9E
:100280000C94FE000895EF92FF920F931F93CF936B
:10029000DF93EC0181E0898B9C898D8998131CC0C8
:1002A000AC85BD8514968C91149785FF15C0129668
:1002B0006C93AC85BD8580E414968C93EC85FD85AC
:1002C00085818F7D858381E090E0DF91CF911F91C3
:1002D0000F91FF90EF9008958091110180FF08C069
:1002E00080911301888F8E898093130181E08F8B19
:1002F000F62E0C8910E00F5F1F4F0F731127E02EB1
:100300008D898E1104C0CE010E943401F9CFEC8991
:10031000EC0FFD2FF11DE75AFF4FF0820C8BEC859F
:10032000FD8585818062CECFCF93DF93FC0121894B
:100330002223C9F0EC018091110180FF08C0809157
:100340001301808F86898093130181E0878BEC8570
:10035000FD85858185FD03C0848186FD04C0CE01B5
:100360000E943401F4CFDF91CF910895CF93DF93B2
:1003700090E0FC01E25FF44B20812F3F69F0FC012B
:10038000EC50F54BE08130E2E39FF0011124FC5F7B
:100390006130710521F42183DF91CF910895865258
:1003A000954BEC01A881AF3F69F0CF014096A80FB3
:1003B000B92FB11D9FB7F89422838C9188608C93DC
:1003C0009FBFEACFB0E0A0E0F5CF282F30E0F901E1
:1003D000E054F54BE081EE2309F1E13021F0F0F03B
:1003E000E63098F008954091010A2652354BF90104
:1003F00020812C5F81E090E001C0880F2A95EAF708
:10040000809584238093010A089580E1E89FF0019C
:100410001124E05AF54F81818F7E81830895FF92E8
:100420000F931F93CF93DF93082F10E0F801E25F43
:10043000F44BF0809FEFF916A1F0EB018B3210F432
:100440000E94E501F801EC50F54BE08180E2E89F65
:10045000F0011124FC5F80818F2159F0CD2B39F4FC
:10046000F682DF91CF911F910F91FF900895F58251
:10047000F8CFD801A652B54B8C91309771F08F3FD1
:1004800061F07096E80FF11D9FB7F8948081CD2B35
:1004900039F4877F80839FBFE4CFF0E0E0E0F4CFC2
:1004A0008860F8CFCF92DF92EF92FF920F931F9365
:1004B000CF93DF93EC016A017B01022F89898823A6
:1004C00039F0E881F9810288F389E02DCE010995A0
:1004D00098898091E205892B8093E2051FB7F894F3
:1004E00060E070E281EA97E0A70196010E94E804CB
:1004F00069017A018FEFC81AD80AE80AF80AF69457
:10050000E794D794C794EC85FD8586818D7F86839B
:10051000EC85FD8586818683198AA09123110A2E98
:10052000000CBB0BA70196010E94290520E034E0D6
:1005300040E050E00E940A05EC85FD85C20ED31E06
:10054000E41EF51EC086D186EC85FD850783EC850B
:10055000FD858681806C8683EC85FD85858180683C
:1005600085838E858B3220F462E070E00E94B601B4
:100570008F858B3220F461E070E00E940F028F853E
:100580008B3220F461E070E00E94B6011FBFDF9162
:10059000CF911F910F91FF90EF90DF90CF90089532
:1005A00081E00895DC01ED91FC910088F189E02D56
:1005B00023E030E009941F920F920FB60F9211249E
:1005C0002F933F934F935F936F937F938F939F935B
:1005D000AF93BF934091AF285091B0286091B1285C
:1005E0007091B2288091AD289091AE282091AB28CF
:1005F0003091AC28420F531F611D711D2091A92815
:100600003091AA28820F931F883E23E0920730F092
:10061000885E93404F5F5F4F6F4F7F4F8093AD2851
:100620009093AE284093AF285093B0286093B128A0
:100630007093B2288091A5289091A628A091A72810
:10064000B091A8280196A11DB11D8093A528909373
:10065000A628A093A728B093A82881E08093B60A83
:10066000BF91AF919F918F917F916F915F914F91CA
:100670003F912F910F900FBE0F901F9018951F92D2
:100680000F920FB60F9211242F933F934F935F93C6
:100690006F937F938F939F93AF93BF93EF93FF934A
:1006A00088E098E20E94FE00FF91EF91BF91AF9128
:1006B0009F918F917F916F915F914F913F912F917A
:1006C0000F900FBE0F901F9018951F920F920FB6AC
:1006D0000F9211242F933F934F935F936F937F93C8
:1006E0008F939F93AF93BF93EF93FF93E091142861
:1006F000F0911528818181FD2FC0608180911A2899
:100700008F5F8F7390911B28891741F0E0911A2811
:10071000F0E0E85FF74D618F80931A288091A1285F
:100720009091A228009739F0DC01ED91FC910190A5
:10073000F081E02D0995FF91EF91BF91AF919F91CD
:100740008F917F916F915F914F913F912F910F907A
:100750000FBE0F901F9018958081EDCF88ED90E02F
:1007600084BF9093610080E094E2A4EFB0E08093B6
:10077000002890930128A0930228B0930328809129
:100780000206866080930206809100068160809355
:100790000006809102068F7C809302068091A00063
:1007A0008F788093A000809102068061809302067A
:1007B0001092E20581E08093E40583E08093010AD2
:1007C0008FEF90E08093260A9093270A80E890E0CC
:1007D0008093380A9093390A80933A0A90933B0A9F
:1007E00080933C0A90933D0A8BE08093000A8091AD
:1007F000E50581608093E5058091E5058260809341
:10080000E505E0E8FAE037E02FEF90E885E0318396
:100810002487958780837096E03C4AE0F407B9F717
:1008200080E094E080930628909307288091062822
:10083000909107282FEF30E0B9010E94D404609313
:100840000428709305288091062890910728E8EEE7
:10085000F3E0BF010E94D4046093AB287093AC28EE
:100860008091062890910728BF010E94D4048093AC
:10087000A9289093AA282093BC0A3093BD0A80919E
:10088000B50A81608093B50A84E08093B00A8091B4
:10089000B00A81608093B00A789440E855E260E045
:1008A00070E088E098E20E94D20262E070E082E0AC
:1008B0000E94B601DFEF84EBE82EF12C00E010E09F
:1008C000DD24D394CC24CA9482E00E94E501809177
:1008D000080480FD23C08091A42881111FC0D092FC
:1008E000A428C092A328D093000A61E070E08AE0B7
:1008F0000E94B6018FB7F894E0923A0AF0923B0A50
:100900008FBF8091010A80628093010A4FE050E01E
:1009100068E27BE488E098E20E947B00C091A32813
:10092000C23351F461E070E08AE00E94B60170E0E9
:1009300060E08AE00E940F02CF5FCF3F49F0C09392
:10094000A3280115110509F4BFCF0E940000BCCFF8
:100950001092A3281092A428F4CFE8E0F8E21282C3
:10096000138288EE93E0A0E0B0E084839583A683B1
:10097000B7838AEA9AE48083918380E698E084874B
:10098000958788E1868789E1878780E4808B128A52
:10099000138A148A158A86E2868B178A108E109223
:1009A000A1281092A2280895AA1BBB1B51E107C0E1
:1009B000AA1FBB1FA617B70710F0A61BB70B881FEF
:1009C000991F5A95A9F780959095BC01CD0108957E
:1009D000A1E21A2EAA1BBB1BFD010DC0AA1FBB1F43
:1009E000EE1FFF1FA217B307E407F50720F0A21BB5
:1009F000B30BE40BF50B661F771F881F991F1A9422
:100A000069F760957095809590959B01AC01BD014B
:100A1000CF010895052E97FB1EF400940E94210536
:100A200057FD07D00E94E80407FC03D04EF40C9455
:100A3000210550954095309521953F4F4F4F5F4F81
:100A4000089590958095709561957F4F8F4F9F4F3A
:100A50000895B7FF0C9437050E943705821B930B4E
:100A60000895EE0FFF1F0590F491E02D09940E9468
:100A70004205A59F900DB49F900DA49F800D911DE0
:100A800011240895A29FB001B39FC001A39F700DD0
:100A9000811D1124911DB29F700D811D1124911D86
:060AA0000895F894FFCF59
:100AA6000000000043017B00A8009401D900B700B4
:100AB600CB00D2025202E500D00200000003000182
:100AC600020000010100000000000000000000001C
:100AD60000000000050400050602040103000100F1
:100AE60001020302010002030405020305040202D7
:100AF60000050201050004010104040403030303C5
:100B06000505030300000101201001204004100226
:100B16000801020102040804020104081020040866
:100B26002010547269676765722070756C6C656415
:020B36000A00B3
:040B38000024F400A1
:00000001FF
