:100000000C9462000C948A000C948A000C948A0070
:100010000C948A000C948A000C948A000C948A0038
:100020000C94B0050C948A000C948A000C948A00FD
:100030000C948A000C948A000C948A000C948A0018
:100040000C940E050C948A000C947E050C945805B3
:100050000C948A000C948A000C948A000C948A00F8
:100060000C948A000C948A000000000024002700F1
:100070002A0000000000250028002B0000000008D6
:10008000000201000003040700000000000000005F
:1000900000000000230026002900040404040404D6
:1000A0000404020202020202030303030303010227
:1000B00004081020408001020408102001020408F6
:1000C0001020B00611241FBECFEFD8E0DEBFCDBF99
:1000D00012E0A0E0B1E0E0E3F2E202C005900D9290
:1000E000AE31B107D9F723E0AEE1B2E001C01D9215
:1000F000AE3EB207E1F710E0C2E6D0E004C02197BF
:10010000FE010E941011C136D107C9F70E94EA060C
:100110000C9416110C940000E091E103F091E203BD
:10012000238534852817390728F48091E0038160FE
:100130008093E00308950F931F93CF93DF93E09193
:10014000E103F091E20340912E02828510E048170E
:1001500008F064C0142F117000912D0201114FC0DE
:10016000842F90E0880F991FE80FF91F0384F4850E
:10017000E02D2CEE3FEF112311F024E130E0C0918F
:100180002B02D0912C022C0F3D1FC90163E470E0BB
:100190000E94FC10E617F70760F0C90168E270E002
:1001A0000E94FC106F5F7F4F81E090E06E177F0729
:1001B00010F52C0F3D1FC90163E470E00E94FC1094
:1001C000E617F70750F0C90168E270E00E94FC10E2
:1001D0006F5F7F4F6E177F0760F42C0F3D1FC901C3
:1001E00063E470E00E94FC10E617F707E8F41FEFE5
:1001F00015C082E090E090932A02809329020F5F5D
:1002000000932D028091290290912A020817190665
:1002100028F010922D024F5F40932E02812FDF9124
:10022000CF911F910F910895C90168E270E00E947B
:10023000FC106F5F7F4F6E177F07C8F283E090E07E
:10024000DACF90E0FC01E458FF4F2491FC01E25525
:10025000FF4F3491FC01E656FF4FE491EE23C9F0C5
:10026000222339F0233001F1A8F4213019F1223092
:1002700029F1F0E0EE0FFF1FEE58FF4FA591B4916A
:100280008FB7F894EC91611126C030953E233C93D2
:100290008FBF08952730A9F02830C9F0243049F7DE
:1002A000809180008F7D03C0809180008F77809344
:1002B0008000DFCF84B58F7784BDDBCF84B58F7DA1
:1002C000FBCF8091B0008F778093B000D2CF809128
:1002D000B0008F7DF9CF3E2BDACFCF93DF9390E044
:1002E000FC01E255FF4F249186569F4FFC018491FB
:1002F0008823D1F090E0880F991FFC01E859FF4F47
:10030000A591B491FC01EE58FF4FC591D4916111B4
:100310000EC09FB7F8948C91E22FE0958E238C93BA
:100320002881E223E8839FBFDF91CF9108958FB7A3
:10033000F894EC91E22BEC938FBFF6CFACECB2E0EB
:1003400011968C931197282F30E0F901E255FF4F59
:10035000E4911496EC931497F901E656FF4FE4915B
:10036000F0E0EE0FFF1FE057FF4F259134911396F9
:100370003C932E93129760E00C946D013FB7F89474
:100380008091250290912602A0912702B091280227
:1003900026B5A89B05C02F3F19F00196A11DB11DE0
:1003A0003FBFBA2FA92F982F8827BC01CD01620F1C
:1003B000711D811D911D42E0660F771F881F991FD7
:1003C0004A95D1F70895AF92BF92CF92DF92EF9204
:1003D000FF920F931F93CF93DF936C017B018B01EF
:1003E000040F151FEB015E01AE18BF08C017D1073F
:1003F00059F06991D601ED91FC910190F081E02DC9
:10040000C6010995892B79F7C501DF91CF911F911D
:100410000F91FF90EF90DF90CF90BF90AF90089535
:10042000FC01538D448D252F30E0842F90E0821BFA
:10043000930B541710F0CF96089501970895FC017F
:10044000918D828D981761F0A28DAE0FBF2FB11DD7
:100450005D968C91928D9F5F9F73928F90E008952F
:100460008FEF9FEF0895FC01918D828D981731F0E9
:10047000828DE80FF11D858D90E008958FEF9FEF3D
:100480000895FC01918D228D892F90E0805C9F4F13
:10049000821B91098F73992708958FE292E00E9441
:1004A000410221E0892B09F420E0822F089580E0A9
:1004B00090E0892B29F00E944D0281110C940000DC
:1004C0000895FC01A48DA80FB92FB11DA35ABF4FE9
:1004D0002C91848D90E001968F739927848FA68943
:1004E000B7892C93A089B1898C91837080648C9397
:1004F000938D848D981306C00288F389E02D808146
:100500008F7D80830895EF92FF920F931F93CF9377
:10051000DF93EC0181E0888F9B8D8C8D98131AC03E
:10052000E889F989808185FF15C09FB7F894EE8925
:10053000FF896083E889F989808183708064808382
:100540009FBF81E090E0DF91CF911F910F91FF90CD
:10055000EF900895F62E0B8D10E00F5F1F4F0F7375
:100560001127E02E8C8D8E110CC00FB607FCFACF30
:10057000E889F989808185FFF5CFCE010E9461026B
:10058000F1CFEB8DEC0FFD2FF11DE35AFF4FF08201
:100590009FB7F8940B8FEA89FB8980818062CFCF67
:1005A000CF93DF93EC01888D8823B9F0AA89BB89AA
:1005B000E889F9898C9185FD03C0808186FD0DC095
:1005C0000FB607FCF7CF8C9185FFF2CF808185FFB6
:1005D000EDCFCE010E946102E9CFDF91CF91089566
:1005E0008F929F92AF92BF92CF92DF92EF92FF9243
:1005F0004B015C010E94BE016B017C0124E0C21A28
:10060000D108E108F1080E94BE016C197D098E092C
:100610009F09681579058A059B05A8F3FF90EF905F
:10062000DF90CF90BF90AF909F908F900895FC0186
:100630009B0124513109C90163E470E00E94FC1060
:10064000E617F70758F0C90168E270E00E94FC1055
:100650006F5F7F4F81E06E177F0708F480E0089599
:100660002F923F924F925F926F927F928F929F92C2
:10067000AF92BF92CF92DF92EF92FF920F931F93B0
:10068000CF93DF9300D000D000D0CDB7DEB7382EA7
:100690006D835A013C832B8348012E2C9A012C5EDA
:1006A0003F4FC90163E470E00E94FC108B01C90157
:1006B00068E270E00E94FC109B012F5F3F4F3A837D
:1006C00029835D81452F50E0440F551F455F5F4FE3
:1006D0008091E1039091E203480F591F5E834D839F
:1006E000412C512C32014394C12CD12C7601332062
:1006F000B9F18B819C81A816B906E1F4B401ED81B2
:10070000FE81828193810E941703222011F1CC0C7B
:10071000DD1CEE1CFF1C882311F06894C0F8440C0B
:10072000551C661C771C3A948D819E8104969E838D
:100730008D83DDCFED81FE8120813181201731074E
:1007400030F081E049815A8142175307F0F680E08A
:10075000DCCF882321F3C428D528E628F728DFCF6B
:10076000C092C603D092C703E092C803F092C903B7
:1007700081E026960FB6F894DEBF0FBECDBFDF91A5
:10078000CF911F910F91FF90EF90DF90CF90BF908E
:10079000AF909F908F907F906F905F904F903F9021
:1007A0002F900895EF920F931F93FC01862F642FD3
:1007B000EE24E3949785911101C0E12C0185128507
:1007C00023853485478150850E9430031F910F9106
:1007D000EF9008950F931F93CF93DF93EC01E09177
:1007E000E103F091E203058516852B813C812C5EA7
:1007F0003F4FC90163E470E00E94FC100617170721
:10080000A0F0C90168E270E00E94FC106F5F7F4FAA
:100810006017710750F06D817E8187859089DF9127
:10082000CF911F910F910C94170380E0DF91CF912E
:100830001F910F910895E9EBF3E08AE190E0928334
:10084000818385E090E09483838361E080810C94D0
:100850006D018091B703882319F060E00C942101A9
:100860002D980895882349F08091B703882319F0C3
:1008700061E00C9421012D9A08950C9429044F9263
:100880005F926F927F928F929F92AF92BF92CF9220
:10089000DF92EF92FF92CF93DF93CDB7DEB72D9724
:1008A0000FB6F894DEBF0FBECDBF7C010E94BE0123
:1008B00069837A838B839C834B015C011D86B0E046
:1008C000A0E09701AD0125523109410951092D835D
:1008D0003E834F8358879701AD0127503109410965
:1008E000510929873A874B875C87F89461E08091AA
:1008F000B9030E9421018091BC039091BD03823015
:10090000910538F0880F991F880F991F0597019757
:10091000F1F760E08091B9030E94210178943D8550
:10092000311107C08091B803823019F481E00E9430
:1009300032048091BA039091BB03880E991EA11CCA
:10094000B11CF8940E94BE012B013C016B0149814E
:100950005A81C41AD50AF12CE12C8D819E81AF8178
:10096000B885C816D906EA06FB0634F08091B803AC
:10097000823011F40E94290429853A854B855C85D3
:10098000C216D306E406F506B4F078942D960FB699
:10099000F894DEBF0FBECDBFDF91CF91FF90EF90F7
:1009A000DF90CF90BF90AF909F908F907F906F908F
:1009B0005F904F90089531E03D87481459046A04D0
:1009C0007B0408F4BFCF91CF0E941B0480E891E123
:1009D0000E943F0460E871E180E090E00E94F00234
:1009E00080E392E00E943F0460E372E080E090E0E8
:1009F0000E94F00280E392E00C943F040E941B04EA
:100A000080E093E20E943F0460EC78E080E090E0B8
:100A10000E94F00280E392E00C943F041F920F9238
:100A20000FB60F9211242F933F938F939F93AF9301
:100A3000BF938091210290912202A0912302B09154
:100A400024023091200223E0230F2D3758F5019620
:100A5000A11DB11D209320028093210290932202B8
:100A6000A0932302B0932402809125029091260244
:100A7000A0912702B09128020196A11DB11D80937B
:100A8000250290932602A0932702B0932802BF91DB
:100A9000AF919F918F913F912F910F900FBE0F902B
:100AA0001F90189526E8230F0296A11DB11DD2CFE5
:100AB0001F920F920FB60F9211242F933F934F93D3
:100AC0005F936F937F938F939F93AF93BF93EF93B6
:100AD000FF938FE292E00E946102FF91EF91BF913C
:100AE000AF919F918F917F916F915F914F913F91C6
:100AF0002F910F900FBE0F901F9018951F920F927D
:100B00000FB60F9211242F938F939F93EF93FF9320
:100B1000E0913F02F09140028081E0914502F09126
:100B2000460282FD1BC09081809148028F5F8F73C7
:100B300020914902821741F0E0914802F0E0E15D26
:100B4000FD4F958F80934802FF91EF919F918F9178
:100B50002F910F900FBE0F901F9018958081F4CFAA
:100B60001F920F920FB60F9211242F933F934F9322
:100B70005F936F937F938F939F93AF93BF93CF9325
:100B8000EF93FF93E091CE02F091CF02C08180916C
:100B9000D002C8238091D1029091D202019649F0EF
:100BA0008091D1029091D20201969093D2028093CB
:100BB000D1028091CC0281111DC0C1116EC0809103
:100BC000D1029091D2028536910578F01092D5022B
:100BD0008091D1029091D2029093D8028093D70253
:100BE00081E08093D6028093CC021092D2021092C0
:100BF000D10253C08091CC028130A9F4CC2309F4F6
:100C00004CC0E091D6028E0F8093D6028091D10223
:100C10009091D202F0E0EE0FFF1FE453FD4F948756
:100C2000838782E0E0CF8091CC02823009F04FC010
:100C3000C11122C0E091D60281E0E03768F08093D4
:100C4000D50283E08093CC02E091D302F091D402EC
:100C5000309759F20995C9CF8E0F8093D6028091B3
:100C6000D1029091D202F0E0EE0FFF1FE453FD4F4E
:100C70009487838781E0B7CF8091D1029091D2028F
:100C80008536910550F083E08093CC02E091D30249
:100C9000F091D402309709F009958091B803813022
:100CA00021F4C11180E00E943204FF91EF91CF91B5
:100CB000BF91AF919F918F917F916F915F914F9174
:100CC0003F912F910F900FBE0F901F90189580911C
:100CD000CC02833011F7C111E0CF87CFEF92FF92A2
:100CE0000F931F93CF93DF93EC01F62F8A017901C5
:100CF00090E080E030E0E0E0DE01AE0FB11D2C912D
:100D0000222341F0320F2E9F800D911D11241C9241
:100D1000FE1315C0332399F0532F5695850F911D5F
:100D2000632F70E00E94FC10DE01A60FB11D3C9302
:100D3000D8013C9131110EC06C9390E080E0EF5FE0
:100D4000FE17D0F681E0DF91CF911F910F91FF90B8
:100D5000EF900895D7013C91332371F380E0F3CFF6
:100D6000EFE2F2E01382128288EE93E0A0E0B0E0BE
:100D700084839583A683B78388EF91E091838083F2
:100D800085EC90E09587848784EC90E09787868750
:100D900080EC90E0918B808B81EC90E0938B828B48
:100DA00082EC90E0958B848B86EC90E0978B868B21
:100DB000118E128E138E148E8CEC92E09093E203BF
:100DC0008093E10380E00E949E011092B70310928D
:100DD000B9030895CF93DF93CDB7DEB7E7970FB68A
:100DE000F894DEBF0FBECDBF789484B5826084BD19
:100DF00084B5816084BD85B5826085BD85B581601F
:100E000085BD80916E00816080936E00109281009C
:100E10008091810082608093810080918100816057
:100E20008093810080918000816080938000809118
:100E3000B10084608093B1008091B00081608093A4
:100E4000B00080917A00846080937A0080917A006B
:100E5000826080937A0080917A00816080937A002A
:100E600080917A00806880937A001092C10061E0DE
:100E700084E00E946D0161E08CE00E946D0161E000
:100E800083E00E946D0161E085E00E946D0161E0F8
:100E900087E00E946D0161E086E00E946D0160E0E4
:100EA0008DE00E946D01E0913F02F091400282E0EE
:100EB0008083E0913B02F0913C021082E0913D0280
:100EC000F0913E028FEC808310924702E091430242
:100ED000F091440286E08083E0914102F091420269
:100EE000808180618083E0914102F09142028081A3
:100EF00088608083E0914102F091420280818068A5
:100F00008083E0914102F091420280818F7D808355
:100F100080E480937C0080917A00806480937A00E2
:100F200080917A0086FDFCCF609178007091790005
:100F3000072E000C880B990B611571058105910531
:100F400011F00E9480108DE00E949E011092B70364
:100F500082E08093B0008093B10084E68093B30078
:100F60008093B4001092B2008091CC02833011F4CF
:100F70001092CC0284E08093700010921E029E01B9
:100F80002F5F3F4F390110921F0280911E02811185
:100F90000C94DC0F8091CC02833009F029C280913F
:100FA000D502882309F458C080E48093E0031092AE
:100FB000BF031092BE031092C3031092C20310929B
:100FC000C1031092C0031092C6031092C70310927F
:100FD000C8031092C9031092DF031092DE038091C0
:100FE000E00386FDCEC1E091E103F091E2032285AA
:100FF000822F8F7B843009F0BBC08585968586580B
:1010000091098C35910508F0B3C08785908924300B
:1010100009F049C08197489708F0AAC08189928950
:101020000897089708F0A4C081E08093E0038091BE
:10103000E5039091E6039093C1038093C0038091F0
:10104000E9039091EA039093C3038093C2038091D4
:10105000E3039091E40364C01092E0038091BE0327
:101060009091BF039093E4038093E3038091C203C4
:101070009091C303B0E0A0E08093E9039093EA036A
:10108000A093EB03B093EC038091C0039091C10354
:10109000B0E0A0E08093E5039093E603A093E7031C
:1010A000B093E80384CF825491098F9708F060C011
:1010B00043E060E28CED91E00E94D203882309F4C2
:1010C00057C02091C6039091C7036091C8038091D7
:1010D000C903462F50E05093C3034093C203422FED
:1010E000592F4E3E37E8530701F523E030E03093A7
:1010F000BF032093BE0390E09093C1038093C0038D
:1011000080E290E09093DF038093DE038AE795E02E
:101110000E948C008091E00380FF33C189E090E061
:101120009093BF038093BE032CC19095291310C0E8
:1011300030E03093C1032093C003982F909569133A
:101140000CC088E090E09093BF038093BE03D8CF9B
:101150005093C1034093C003F0CF2AE030E03093B6
:10116000BF032093BE036093C2038093C303C8CF21
:10117000E091E103F091E2038285843609F08FC0AB
:1011800088EC91E00E94EA03882309F488C043E0D8
:1011900060E188EC91E00E94D203882309F47FC0CB
:1011A000F090C6030F2D1091C703BBE0CB2ED12CBE
:1011B000023050E21507F9F0AEE0CA2ED12C0A3AFF
:1011C0008AE51807C1F0FDE0CF2ED12C043592E35B
:1011D000190789F0EFE0CE2ED12C0330E1E01E0795
:1011E00051F080E1C82ED12C0332FBEC1F0719F01F
:1011F0007CE0C72ED12C43E260E288EC91E00E94B3
:10120000D203882309F44BC0F1268091C603909144
:10121000C703A091C803B091C9039C0164E036954F
:1012200027956A95E1F73093C1032093C0032A2FD5
:1012300030E03093C3032093C203382F3A27392775
:101240002F2D22952F702F252F70482F4F70241788
:1012500019F024E02093E0032CE0C216D10449F4F5
:101260002091E00320612093E0031093C5030093D5
:10127000C4033B1729F08091E00384608093E0036E
:1012800080E390E09093DF038093DE03D092BF036E
:10129000C092BE038AE397E00E948C0072C0E09186
:1012A000E103F091E2038285803209F0B6C041E0AB
:1012B0006FE084EB91E00E94D203882309F4ADC073
:1012C000E091E103F091E203DF01A75BBF4F8D9155
:1012D0009C910497059708F0A0C08091C603909157
:1012E000C703A091C803B091C9039C012F71332794
:1012F0003093C1032093C00355E0B695A795979509
:1013000087955A95D1F7492F43709C013327309325
:10131000C3032093C203238534852536344008F067
:1013200074C02091ED032F5F2093ED03223018F05D
:1013300021E02093E00390FF14C02091E003322FBE
:1013400032603093E0033091E9035091EA038095D5
:10135000831719F026602093E0033093C203509363
:10136000C3034150423008F055C086E190E09093AD
:10137000BF038093BE038FE090E09093DF038093E0
:10138000DE0381E080931F028091CC02833011F450
:101390001092CC024AE050E066E072E08FE292E008
:1013A0000E94E3010E94BE016B017C0188EC882E43
:1013B000912CA12CB12C0E94BE016C197D098E09C3
:1013C0009F09683E734081059105A8F3F1E08F1AEB
:1013D0009108A108B10828EEC20E23E0D21EE11C3C
:1013E000F11C81149104A104B10429F710921F0289
:1013F00080E090E0892B09F4C6CD0E944D0288233D
:1014000009F4C1CD0E940000BECD1092ED03423020
:1014100009F4ABCF84E090E0AACF80EA91E00E948B
:10142000EA03882309F44EC0E091E103F091E2035E
:1014300082858A3129F08A3219F0803209F042C05F
:1014400090E0BC016150710977FDBC01759567950D
:1014500043E080EA91E00E94D203882399F18091D1
:10146000C6039091C703A091C803B091C9039C0122
:101470002F7733273093C3032093C20337E0B69509
:10148000A795979587953A95D1F79093C103809347
:10149000C003E091E103F091E203228530E0C9014D
:1014A000019797FDC901959587959093DF038093E8
:1014B000DE0387E190E09093BF038093BE0380EE4C
:1014C00091E0EACE81E080932E0289E793E0909349
:1014D0002C0280932B0210922D020E949B008130DF
:1014E00009F066C0C12CD12C760110E0E091E10337
:1014F000F091E203928580912E028917E0F40E9418
:101500009B00082F0E949B0001110BC0813009F045
:101510004FC0CC0CDD1CEE1CFF1C6894C0F81F5F94
:10152000E5CF013009F044C0811142C0CC0CDD1C74
:10153000EE1CFF1CF4CF812F90E09093DF0380938B
:10154000DE03C092C603D092C703E092C803F092B4
:10155000C9038C2D8F7390E09093C3038093C203D3
:10156000960116E0369527951A95E1F72F713327E6
:101570003093C1032093C003960122273071232B9F
:1015800031F4805C9F4F9093C3038093C20380E843
:101590008093E003D3FE03C088E88093E00381E1F9
:1015A00090E09093BF038093BE038FEC99E074CEDC
:1015B000E091E103F091E2038585968588974D9748
:1015C00008F046C0878590890C970B9708F040C0BB
:1015D00083E080932E028CEB91E090932C02809319
:1015E0002B0210922D020E949B00813089F50E94EF
:1015F0009B0081112DC0C12CD12C760110E0E0910F
:10160000E103F091E203928580912E02891708F0A0
:1016100082C00E949B00B82E1330B1F00E949B0044
:10162000082F133021F40E949B00081311C091E091
:10163000B91267C001110CC0CC0CDD1CEE1CFF1CE4
:101640006894C0F81F5FDBCF0E949B00B81631F38F
:10165000E091E103F091E20322852C3311F0243074
:1016600099F4858596858638910570F0833E9105BD
:1016700008F497C08E58910968EB7BE007E010E012
:101680008236910508F491C0E091E103F091E20304
:101690008285823209F4EEC0843209F015C184E1FA
:1016A00091E00E94EA03882309F40EC143E060E15F
:1016B00084E191E00E94D203882309F405C180915E
:1016C000C6039091C703A091C803B091C903492FE5
:1016D0005A2F6B2F77275093C3034093C203992748
:1016E0009093C1038093C00380E190E09093DF0367
:1016F0008093DE03E5E0F0E0F093BF03E093BE03E8
:1017000040CEB110A5CF013009F0A2CFCC0CDD1C2A
:10171000EE1CFF1C97CF812F90E09093DF03809306
:10172000DE03C092C603D092C703E092C803F092D2
:10173000C9032C2D30E08D2D143200F580E8809304
:10174000E0033093C3032093C2038D2D90E0909368
:10175000C1038093C003E0FE03C088E88093E003E8
:10176000153128F08091E00380618093E00383E7E6
:101770009AE00E948C0082E190E0D2CC90E89093B5
:10178000E003D7FE03C098E89093E0033093C303CF
:101790002093C2038F7790E09093C1038093C0039E
:1017A000E6CF68E670E106E010E087859089243096
:1017B00061F44D97469708F067CF81899289079722
:1017C000089708F061CF81E830CC0E941703882386
:1017D00009F45ACF43E06CE180E091E00E94D2032B
:1017E000882309F451CF80E88093E0038091C603F9
:1017F0009091C703A091C803B091C903AC01BD018A
:10180000E4E07695679557954795EA95D1F79A0163
:101810005093C3034093C203AC01BD01F4E176953C
:10182000679557954795FA95D1F75093C103409323
:10183000C00344E050E060E0722F7F70670F74E0F7
:10184000369527957A95E1F741505109A9F78627F2
:101850008F709927AA27BB27892B8A2B8B2B19F0EE
:1018600084E88093E0031093BF030093BE038CE1F0
:1018700090E083CD838594858C3E9C4508F081CD96
:10188000858596850897079708F07BCDE35BFF4F2A
:10189000808191810897079708F073CD81E080934C
:1018A000E0038091E5039091E6039093C103809358
:1018B000C0038091E9039091EA039093C30380935E
:1018C000C20385E090E02CCCE091E103F091E203CB
:1018D0001285812F8F7D843419F0163009F07EC077
:1018E00088E291E00E94EA03882309F477C0163069
:1018F000B1F481E08093E0038091E5039091E603E9
:101900009093C1038093C0038091E9039091EA030F
:101910009093C3038093C20385E190E001CC43E040
:1019200060E288E291E00E94D203882309F456C065
:101930001091C8030091C9039091C6038091C70319
:101940009093C0038093C103E091E103F091E2031F
:101950008285843651F543E460E188E291E00E949B
:10196000D2038823D9F18091C6039091C7030095D3
:10197000101731F09095981719F094E09093E003C8
:10198000982F812F9093C3038093C20380E390E04C
:101990009093DF038093DE0384E190E09093BF0394
:1019A0008093BE038FE595E077CC802F8095181348
:1019B0000FC0812F90E09093C3038093C20380E215
:1019C00090E09093DF038093DE0383E190E0E6CF25
:1019D000C8019093C2038093C303F1CFE091E10368
:1019E000F091E2038285843279F58CE391E00E94E4
:1019F000EA03882349F143E060E18CE391E00E942F
:101A0000D203882309F11091C6038091C703809502
:101A1000181719F084E08093E0038DE692E00E94AD
:101A20008C00812F90E09093C3038093C2031092A7
:101A3000C1031092C00380E190E09093DF03809394
:101A4000DE038DE190E06CCBE091E103F091E203E5
:101A500082858434D1F480E591E00E94EA038823F2
:101A6000A1F043E060E280E591E00E94D203882388
:101A700061F080E88093E00380E290E09093DF03E0
:101A80008093DE038CE190E04BCB84E691E00E94F2
:101A9000EA03E091E103F091E2039285882309F4DF
:101AA00055C0943209F052C043E060E184E691E011
:101AB0000E94D203882309F449C0E091E103F09128
:101AC000E203DF01AF5ABF4F8D919C9102970497BB
:101AD000E8F580E88093E0033091C6032091C703C6
:101AE000832F922F422F42954F702F70A4E096952E
:101AF0008795AA95E1F78F703F709FE09427922712
:101B00009827391719F094E89093E003638574855A
:101B1000683F714128F49091E00392609093E00354
:101B20004093C0031092C10350E1259F90011124FE
:101B3000282B3093C3032093C20380E190E090935D
:101B4000DF038093DE038AE190E0EACA88E791E050
:101B50000E94EA03E091E103F091E2039285882379
:101B600081F1943271F543E060E188E791E00E94F1
:101B7000D203882331F1E091E103F091E203EF5ABF
:101B8000FF4F8081918108970797D8F48091C60311
:101B90009091C70398279F3FA1F490E09093C303CF
:101BA0008093C20380E190E09093DF038093DE0393
:101BB00089E190E09093BF038093BE0388ED94E0A9
:101BC0006BCBE091E103F091E2038285803709F06D
:101BD00059C041E068E08CE891E00E94D20388237C
:101BE00009F450C08091C6039091C703A091C80327
:101BF000B091C903892B8A2B8B2B09F043C041E19B
:101C00006FE18CE891E00E94D2038823D9F1C09063
:101C1000C603D090C703E090C803F090C9034FE417
:101C200061E18CE891E00E94D203882359F1909100
:101C3000C7038091C8038927982789279093C303F6
:101C40008093C203C092C603D092C703E092C80338
:101C5000F092C903D092C103C092C003F092C503B1
:101C6000E092C4038BE190E09093BF038093BE03A6
:101C700088E390E09093DF038093DE0380E8809315
:101C8000E0037FCBA091E103B091E2031A968C911F
:101C90001A97843108F429C182E3F30111928A95DD
:101CA000E9F71A962C911A972250330B60E043E023
:101CB000842F90E082179307BCF4880F991FFD01D1
:101CC000E80FF91F838594858233910508F00DC1D3
:101CD000F301E80FF91F50815F5F50836817190601
:101CE00008F4682F4E5FE4CF1EAA1DAA9E012B5C4C
:101CF0003F4FAE014A5C5F4FC3010E946E068823CE
:101D000009F4F3C082E3F30111928A95E9F7A091F7
:101D1000E103B091E2031A962C911A972250330BEB
:101D200060E044E0842F90E082179307BCF4880FB2
:101D3000991FFD01E80FF91F838594858233910572
:101D400008F0D3C0F301E80FF91F50815F5F5083A3
:101D50006817190608F4682F4E5FE4CF1CAA1BAA67
:101D60009E012D5C3F4FAE014C5C5F4FC3010E9452
:101D70006E06882309F4B9C0E091E103F091E20313
:101D8000828586958150990BCBA88DA89C01215006
:101D90003109CC2019F0811001C0C9019093DF03F3
:101DA0008093DE039C012150310995E036952795FB
:101DB0009A95E1F72FAB811003C0CC2009F495C0B0
:101DC0004CA892E3499E20011124AEA8A99E50017F
:101DD0001124899E40011124C99E60011124F82E0E
:101DE00083E0282E312C8F2DF0E2FF1508F480E2DD
:101DF0009DA9992309F465C021E030E03093BF0329
:101E00002093BE03E12C82019501A401622D0E9462
:101E10003003882309F469C024E0329EF0011124C4
:101E2000EA52FC4F8091C6039091C703A091C8036A
:101E3000B091C90380839183A283B38330E4230EDE
:101E4000339450EEF50E8FA9831568F680ED97E078
:101E50000E948C00E091E103F091E20345855685F4
:101E600082E3849F9001859F300D11243093CB0332
:101E70002093CA0347855089849F9001859F300D28
:101E800011243093CD032093CC03B092D303A092BE
:101E9000D2035092D5034092D40381149104E1F00F
:101EA0009092CF038092CE035092D1034092D00300
:101EB000C114D10409F465CAD092D503C092D403E9
:101EC00060CAE2E0F0E0F093BF03E093BE03E12CD0
:101ED00086019501A5019ACFB092CF03A092CE03BF
:101EE000D092D103C092D0034CCAA090E103B0902D
:101EF000E203F5018285863008F443CA11E025EC3F
:101F00003DE94CE151E8C82ED12C0AE0812F90E048
:101F1000BC016E5F7F4F6C157D05DCF5660F771F8A
:101F2000F501E60FF71F63857485880F991FF5018A
:101F3000E80FF91F83859485069FD001079FB00D98
:101F40001124FC01EE0FFF1FEE0FFF1FEE0FFF1F0E
:101F5000AE17BF07D0F0089FF001099FF00D1124C4
:101F6000CB0163E0880F991F6A95E1F7E817F9073D
:101F700070F4E2E063E971E080E091E00E94891092
:101F80009B01AC012E271F5FC1CFE0E0F3CFE1E062
:101F9000F1CF2093C6033093C7034093C8035093F7
:101FA000C90380E290E09093DF038093DE031092F8
:101FB000BF031092BE03E5C94BE050E061E172E05F
:101FC0008FE292E00E94E30113CA8F929F92AF9238
:101FD000BF92CF92DF92EF92FF92CF93DF93EC010B
:101FE000688179818A819B816115710581059105DF
:101FF00021F464E279ED8BE597E02DE133EF41E0E8
:1020000050E00E94BB1049015A019B01AC01A7EAB4
:10201000B1E40E94DA106B017C01ACEEB4EFA501D3
:1020200094010E94E810C60ED71EE81EF91EF7FEA6
:1020300006C081E0C81AD108E10880E8F80AC88221
:10204000D982EA82FB82C701B6019F77DF91CF91E7
:10205000FF90EF90DF90CF90BF90AF909F908F90C8
:1020600008958F929F92AF92BF92CF92DF92EF929C
:10207000FF926091F0017091F1018091F2019091D5
:10208000F301611571058105910521F464E279ED93
:102090008BE597E02DE133EF41E050E00E94BB106B
:1020A00049015A019B01AC01A7EAB1E40E94DA1090
:1020B0006B017C01ACEEB4EFA50194010E94E81025
:1020C000C60ED71EE81EF91EF7FE06C081E0C81A2C
:1020D000D108E10880E8F80AC092F001D092F1013D
:1020E000E092F201F092F301C701B6019F77FF90F1
:1020F000EF90DF90CF90BF90AF909F908F9008951A
:102100006093F0017093F1018093F2019093F301D9
:102110000895DB018F939F930E94DA10BF91AF91D6
:10212000A29F800D911DA39F900DB29F900D112431
:102130000895A1E21A2EAA1BBB1BFD010DC0AA1F08
:10214000BB1FEE1FFF1FA217B307E407F50720F020
:10215000A21BB30BE40BF50B661F771F881F991F9B
:102160001A9469F760957095809590959B01AC01E4
:10217000BD01CF010895052E97FB1EF400940E9427
:10218000D21057FD07D00E94991007FC03D04EF4DF
:102190000C94D21050954095309521953F4F4F4F5C
:1021A0005F4F089590958095709561957F4F8F4F03
:1021B0009F4F08950E94ED10A59F900DB49F900D24
:1021C000A49F800D911D11240895B7FF0C94DA107F
:1021D0000E94DA10821B930B0895A29FB001B39F57
:1021E000C001A39F700D811D1124911DB29F700D20
:1021F000811D1124911D0895AA1BBB1B51E107C02D
:10220000AA1FBB1FA617B70710F0A61BB70B881F86
:10221000991F5A95A9F780959095BC01CD01089515
:10222000EE0FFF1F0590F491E02D0994F894FFCF75
:1022300006002628236810F4012C06F401260280EB
:102240006E00FE04050026E02070100E022A060E25
:10225000020E0200410000001300268011801130A0
:1022600002900630023002006E00E4041D002638A1
:10227000081C040E022A060E020E020032000000A4
:102280001C0026220B220BEE026608EE02EE0280F4
:102290006E0000001A00269E0002049E0029029E85
:1022A000000701006E000000190026F603BC0508B7
:1022B00002BC050802D401004B0000001B00261FD1
:1022C000015D033E023E021F015D03806E000000BF
:1022D00017002860095802B004580258025802003A
:1022E0002D00000004002604010C0304011C070457
:1022F000010C03006E0000000C0025800DC006B02C
:10230000011005B001B001008200000008002600A5
:102310002380113002900630023002006E00FE046D
:1023200001000000000000008302E3011002D0025F
:1023300041021F0233027265636569766564210A92
:0E23400000454E440A454E440A454E440000F6
:00000001FF
