:100000000C945D000C9485000C9485000C94850084
:100010000C9485000C9485000C9485000C9485004C
:100020000C9485000C9485000C9485000C9485003C
:100030000C9485000C9485000C9485000C9485002C
:100040000C9427020C9485000C9485000C94850078
:100050000C9485000C9485000C9485000C9485000C
:100060000C9485000C94850000000008000201003B
:100070000003040700000000000000000000000072
:10008000250028002B0000000000240027002A0083
:10009000040404040404040402020202020203032E
:1000A0000303030301020408102040800102040836
:1000B0001020010204081020D00311241FBECFEF2E
:1000C000D8E0DEBFCDBF11E0A0E0B1E0E8E7FAE0A4
:1000D00002C005900D92A430B107D9F721E0A4E049
:1000E000B1E001C01D92AB32B207E1F710E0CDE5FF
:1000F000D0E004C02197FE010E942005CC35D10735
:10010000C9F70E9471020C943A050C94000090E02B
:10011000FC01EC55FF4F249180579F4FFC018491C7
:10012000882399F090E0880F991FFC01EA57FF4F50
:10013000A591B491FC01E458FF4F859194918FB73C
:10014000F894EC91E22BEC938FBF089590E0FC01C2
:10015000E859FF4F2491FC01EC55FF4F3491FC010D
:10016000E057FF4FE491EE23C9F0222339F023300A
:1001700001F1A8F4213019F1223029F1F0E0EE0F5D
:10018000FF1FE458FF4FA591B4918FB7F894EC91FD
:10019000611126C030953E233C938FBF08952730D0
:1001A000A9F02830C9F0243049F7809180008F7D74
:1001B00003C0809180008F7780938000DFCF84B56B
:1001C0008F7784BDDBCF84B58F7DFBCF8091B0006E
:1001D0008F778093B000D2CF8091B0008F7DF9CF20
:1001E0003E2BDACFCF93DF93EC01809119019091F0
:1001F0001A01029749F4C130D10509F43BC06CF5EE
:1002000060E0209709F437C08091190190911A019C
:10021000049749F4C130D10509F45CC00CF037C033
:10022000209709F442C08091190190911A01059715
:1002300009F0E5C0CA30D10508F0E1C0FE01ED5D6E
:10024000FE4F0C94200582018E019F01B501D00163
:10025000D201D901E501F601FD01C230D105A9F0B5
:1002600060E0C330D10581F680911D010E94A60097
:1002700060E006C061E080911D010E94A60061E07F
:1002800080911F010E94A600BFCF61E0EDCFC23078
:10029000D10539F1C330D10509F0C5CF61E08091B6
:1002A0001D010E94A60060E022C061E080911D0156
:1002B0000E94A60060E080911F010E94A60061E0FC
:1002C000809121010E94A60060E0809123010E949C
:1002D000A600A9CF60E080911D010E94A60061E008
:1002E000EACF60E080911D010E94A60061E080914C
:1002F0001F010E94A60060E0809121010E94A600DB
:1003000061E0E3CF60E080911D010E94A60061E002
:1003100080911F010E94A60061E00BC060E0809107
:100320001D010E94A60061E080911F010E94A600AD
:1003300060E0809121010E94A60060E010C060E0B2
:1003400080911D010E94A60061E080911F010E9422
:10035000A60060E0809121010E94A60061E08091EA
:1003600023010E94A60061E015C060E080911D019C
:100370000E94A60061E080911F010E94A60060E03B
:10038000809121010E94A60061E0809123010E94DA
:10039000A60060E080912501DF91CF910C94A6002A
:1003A00061E0E4CF61E080911D010E94A60060E061
:1003B000E2CF61E080911D010E94A60060E0809183
:1003C0001F010E94A60061E0DBCF61E080911D016A
:1003D0000E94A60060E080911F010E94A60061E0DB
:1003E000809121010E94A60060E0CFCF61E0809162
:1003F0001D010E94A60060E08BCF60E0F8CFDF9186
:10040000CF9108953FB7F89480910D0190910E011E
:10041000A0910F01B091100126B5A89B05C02F3FF8
:1004200019F00196A11DB11D3FBFBA2FA92F982F1A
:100430008827BC01CD01620F711D811D911D42E015
:10044000660F771F881F991F4A95D1F708951F924D
:100450000F920FB60F9211242F933F938F939F9378
:10046000AF93BF938091090190910A01A0910B0174
:10047000B0910C013091080123E0230F2D3758F57E
:100480000196A11DB11D209308018093090190934D
:100490000A01A0930B01B0930C0180910D01909182
:1004A0000E01A0910F01B09110010196A11DB11D87
:1004B00080930D0190930E01A0930F01B093100152
:1004C000BF91AF919F918F913F912F910F900FBE50
:1004D0000F901F90189526E8230F0296A11DB11DBD
:1004E000D2CF789484B5826084BD84B5816084BDA8
:1004F00085B5826085BD85B5816085BD80916E00C2
:10050000816080936E0010928100809181008260F2
:10051000809381008091810081608093810080912F
:1005200080008160809380008091B100846080931E
:10053000B1008091B00081608093B00080917A001A
:10054000846080937A0080917A00826080937A0040
:1005500080917A00816080937A0080917A0080682F
:1005600080937A001092C10080E480937C00809197
:100570007A00806480937A0080917A0086FDFCCFB7
:100580006091780070917900072E000C880B990B10
:10059000611571058105910511F00E94A0049FE08D
:1005A000492E512C612C712C2AE0222E312CC1E0D5
:1005B000D0E00E9451042CEE3FE040E050E00E9469
:1005C000A904665F774081099109609304017093E3
:1005D000050180930601909307010E9451044B018D
:1005E0005C012091170130911801032E000C440B7F
:1005F000550B60E077E883E993E00E94A904690164
:100600007A01C501B401A30192010E94A9049B01D2
:10061000AC012B5F3F4F4F4F5F4FC701B6010E94A8
:10062000A9042093130130931401409315015093B2
:10063000160180910401909105017C0197FF04C08F
:10064000EE24FF24E81AF90A181619060CF060C007
:10065000D0931201C0931101E114F10409F474C0A4
:100660000E94020200912701109128012091290186
:1006700030912A015B016C01A01AB10AC20AD30AA7
:10068000960185018090130190901401A0901501AE
:10069000B0901601081519052A053B05E8F260938C
:1006A0002701709328018093290190932A0180915A
:1006B0001B0190911C0120911101309112012130F8
:1006C000310571F5019690931C0180931B012091D7
:1006D0001701309118018217930721F410921C0121
:1006E00010921B0121E0E21AF10880911B01909108
:1006F0001C012091190130911A01B10125303105F9
:1007000011F064E070E00E940C050E94F200A4CF9A
:10071000892B09F4A1CF10921201109211019CCFE4
:10072000892B41F4809117019091180190931C013D
:1007300080931B0180911B0190911C010197909364
:100740001C0180931B01CECF0E9402024B015C0171
:1007500084E6C82ED12CE12CF12C0E9402026819EB
:1007600079098A099B09683E734081059105A8F3C0
:1007700081E0C81AD108E108F10898EE890E93E0EB
:10078000991EA11CB11CC114D104E104F10429F784
:1007900080E090E0892B09F40CCF0E94000009CF83
:1007A000CF93DF93C1E1D1E01B861A8619821882AC
:1007B0001E8A1F8A188E198E86EF97E09F838E837C
:1007C00088E090E09D878C878AE090E09F878E8705
:1007D00089E090E0998B888B8BE090E09B8B8A8BF3
:1007E00088E00E9487008E850E94870088890E9489
:1007F00087008A890E9487001D8A1C8A84E090E015
:1008000099878887DF91CF9108958F929F92AF92B9
:10081000BF92CF92DF92EF92FF92CF93DF93EC01E2
:10082000688179818A819B816115710581059105B6
:1008300021F464E279ED8BE597E02DE133EF41E0BF
:1008400050E00E94A90449015A019B01AC01A7EAAA
:10085000B1E40E94C8046B017C01ACEEB4EFA501C9
:1008600094010E94D604C60ED71EE81EF91EF7FE9C
:1008700006C081E0C81AD108E10880E8F80AC882F9
:10088000D982EA82FB82C701B6019F77DF91CF91BF
:10089000FF90EF90DF90CF90BF90AF909F908F90A0
:1008A00008958F929F92AF92BF92CF92DF92EF9274
:1008B000FF9260910001709101018091020190917D
:1008C0000301611571058105910521F464E279ED5B
:1008D0008BE597E02DE133EF41E050E00E94A90461
:1008E00049015A019B01AC01A7EAB1E40E94C80486
:1008F0006B017C01ACEEB4EFA50194010E94D6041B
:10090000C60ED71EE81EF91EF7FE06C081E0C81A03
:10091000D108E10880E8F80AC0920001D0920101F4
:10092000E0920201F0920301C701B6019F77FF90A8
:10093000EF90DF90CF90BF90AF909F908F900895F1
:100940006093000170930101809302019093030171
:100950000895052E97FB1EF400940E94C00457FDD5
:1009600007D00E94DB0407FC03D04EF40C94C004B3
:1009700050954095309521953F4F4F4F5F4F0895CB
:1009800090958095709561957F4F8F4F9F4F0895FB
:100990000E94FD04A59F900DB49F900DA49F800D13
:1009A000911D11240895B7FF0C94C8040E94C80437
:1009B000821B930B0895A1E21A2EAA1BBB1BFD01FB
:1009C0000DC0AA1FBB1FEE1FFF1FA217B307E4072E
:1009D000F50720F0A21BB30BE40BF50B661F771F86
:1009E000881F991F1A9469F7609570958095909566
:1009F0009B01AC01BD01CF010895A29FB001B39F3F
:100A0000C001A39F700D811D1124911DB29F700D17
:100A1000811D1124911D089597FB072E16F4009453
:100A200007D077FD09D00E94260507FC05D03EF4CB
:100A3000909581959F4F0895709561957F4F08958A
:100A4000EE0FFF1F0590F491E02D0994AA1BBB1B2C
:100A500051E107C0AA1FBB1FA617B70710F0A61BBE
:100A6000B70B881F991F5A95A9F780959095BC01DF
:080A7000CD010895F894FFCFB9
:040A78000100000079
:00000001FF
