:100000000C9462000C948A000C948A000C948A0070
:100010000C948A000C948A000C948A000C948A0038
:100020000C94BA050C948A000C948A000C948A00F3
:100030000C948A000C948A000C948A000C948A0018
:100040000C9418050C948A000C9488050C94620595
:100050000C948A000C948A000C948A000C948A00F8
:100060000C948A000C948A00000000080002010031
:100070000003040700000000000000000000000072
:10008000250028002B0000000000240027002A0083
:1000900000000000230026002900040404040404D6
:1000A0000404020202020202030303030303010227
:1000B00004081020408001020408102001020408F6
:1000C0001020BA0611241FBECFEFD8E0DEBFCDBF8F
:1000D00023E0A6E0B2E001C01D92A43DB207E1F723
:1000E00012E0A0E0B1E0E4E7FFE102C005900D926C
:1000F000A630B107D9F710E0C2E6D0E004C02197DE
:10010000FE010E94B20FC136D107C9F70E94F40662
:100110000C94B80F0C940000CF93DF938093B3023C
:1001200090E09C0122553F4FF90144914093B60263
:1001300086569F4FFC014491E42FF0E0EE0FFF1F25
:10014000E057FF4F459154915093B5024093B4024C
:10015000F9012491FC0184918823B9F090E0880F83
:10016000991FFC01EA57FF4FC591D491FC01E45857
:10017000FF4FA591B4919FB7F89488812095822371
:1001800088838C9128232C939FBFDF91CF91089572
:10019000E091C703F091C8032385348528173907F8
:1001A00028F48091C60381608093C60308950F935D
:1001B0001F93CF93DF93E091C703F091C803409161
:1001C0001402828510E0481708F064C0142F1170E3
:1001D0000091130201114FC0842F90E0880F991FE6
:1001E000E80FF91F0384F485E02D2CEE3FEF112377
:1001F00011F024E130E0C0911102D09112022C0FD5
:100200003D1FC90163E470E00E949E0FE617F707E7
:1002100060F0C90168E270E00E949E0F6F5F7F4F3F
:1002200081E090E06E177F0710F52C0F3D1FC9018C
:1002300063E470E00E949E0FE617F70750F0C901D3
:1002400068E270E00E949E0F6F5F7F4F6E177F071E
:1002500060F42C0F3D1FC90163E470E00E949E0F03
:10026000E617F707E8F41FEF15C082E090E09093DF
:10027000100280930F020F5F0093130280910F0210
:10028000909110020817190628F0109213024F5F80
:1002900040931402812FDF91CF911F910F91089508
:1002A000C90168E270E00E949E0F6F5F7F4F6E177A
:1002B0007F07C8F283E090E0DACF90E0FC01E859D4
:1002C000FF4F2491FC01E255FF4F3491FC01E656AB
:1002D000FF4FE491EE23C9F0222339F0233001F1DE
:1002E000A8F4213019F1223029F1F0E0EE0FFF1FC0
:1002F000E458FF4FA591B4918FB7F894EC91611138
:1003000026C030953E233C938FBF08952730A9F037
:100310002830C9F0243049F7809180008F7D03C0D8
:10032000809180008F7780938000DFCF84B58F77B6
:1003300084BDDBCF84B58F7DFBCF8091B0008F77FC
:100340008093B000D2CF8091B0008F7DF9CF3E2B4B
:10035000DACF3FB7F89480910B0290910C02A091F4
:100360000D02B0910E0226B5A89B05C02F3F19F0D3
:100370000196A11DB11D3FBFBA2FA92F982F882725
:10038000BC01CD01620F711D811D911D42E0660F00
:10039000771F881F991F4A95D1F70895AF92BF9292
:1003A000CF92DF92EF92FF920F931F93CF93DF9341
:1003B0006C017B018B01040F151FEB015E01AE1870
:1003C000BF08C017D10759F06991D601ED91FC9192
:1003D0000190F081E02DC6010995892B79F7C501BF
:1003E000DF91CF911F910F91FF90EF90DF90CF9011
:1003F000BF90AF900895FC01538D448D252F30E0C0
:10040000842F90E0821B930B541710F0CF96089521
:1004100001970895FC01918D828D981761F0A28D4E
:10042000AE0FBF2FB11D5D968C91928D9F5F9F7314
:10043000928F90E008958FEF9FEF0895FC01918DCA
:10044000828D981731F0828DE80FF11D858D90E037
:1004500008958FEF9FEF0895FC01918D228D892FD4
:1004600090E0805C9F4F821B91098F7399270895BC
:1004700085E192E00E942C0221E0892B09F420E022
:10048000822F089580E090E0892B29F00E943802A5
:1004900081110C9400000895FC01A48DA80FB92FC0
:1004A000B11DA35ABF4F2C91848D90E001968F739C
:1004B0009927848FA689B7892C93A089B1898C91BB
:1004C000837080648C93938D848D981306C002880A
:1004D000F389E02D80818F7D80830895EF92FF92D4
:1004E0000F931F93CF93DF93EC0181E0888F9B8D57
:1004F0008C8D98131AC0E889F989808185FF15C011
:100500009FB7F894EE89FF896083E889F989808133
:100510008370806480839FBF81E090E0DF91CF9102
:100520001F910F91FF90EF900895F62E0B8D10E024
:100530000F5F1F4F0F731127E02E8C8D8E110CC093
:100540000FB607FCFACFE889F989808185FFF5CFDE
:10055000CE010E944C02F1CFEB8DEC0FFD2FF11D6F
:10056000E35AFF4FF0829FB7F8940B8FEA89FB891B
:1005700080818062CFCFCF93DF93EC01888D882379
:10058000B9F0AA89BB89E889F9898C9185FD03C0F6
:10059000808186FD0DC00FB607FCF7CF8C9185FFDB
:1005A000F2CF808185FFEDCFCE010E944C02E9CFD2
:1005B000DF91CF9108958F929F92AF92BF92CF9289
:1005C000DF92EF92FF924B015C010E94A9016B0147
:1005D0007C0124E0C21AD108E108F1080E94A901B7
:1005E0006C197D098E099F09681579058A059B0597
:1005F000A8F3FF90EF90DF90CF90BF90AF909F90C7
:100600008F900895FC019B0124513109C90163E4D5
:1006100070E00E949E0FE617F70758F0C90168E2E4
:1006200070E00E949E0F6F5F7F4F81E06E177F0723
:1006300008F480E008952F923F924F925F926F925C
:100640007F928F929F92AF92BF92CF92DF92EF9262
:10065000FF920F931F93CF93DF9300D000D000D071
:10066000CDB7DEB7382E6D835A013C832B8348010A
:100670002E2C9A012C5E3F4FC90163E470E00E946A
:100680009E0F8B01C90168E270E00E949E0F9B01E2
:100690002F5F3F4F3A8329835D81452F50E0440F00
:1006A000551F455F5F4F8091C7039091C803480F66
:1006B000591F5E834D83412C512C32014394C12C30
:1006C000D12C76013320B9F18B819C81A816B90613
:1006D000E1F4B401ED81FE81828193810E940203E5
:1006E000222011F1CC0CDD1CEE1CFF1C882311F024
:1006F0006894C0F8440C551C661C771C3A948D8194
:100700009E8104969E838D83DDCFED81FE812081C5
:1007100031812017310730F081E049815A81421739
:100720005307F0F680E0DCCF882321F3C428D528D6
:10073000E628F728DFCFC092AC03D092AD03E09259
:10074000AE03F092AF0381E026960FB6F894DEBFB9
:100750000FBECDBFDF91CF911F910F91FF90EF9012
:10076000DF90CF90BF90AF909F908F907F906F90D1
:100770005F904F903F902F900895EF920F931F93AB
:10078000FC01862F642FEE24E3949785911101C01C
:10079000E12C0185128523853485478150850E948F
:1007A0001B031F910F91EF9008950F931F93CF9309
:1007B000DF93EC01E091C703F091C803058516852E
:1007C0002B813C812C5E3F4FC90163E470E00E94A5
:1007D0009E0F06171707A0F0C90168E270E00E949B
:1007E0009E0F6F5F7F4F6017710750F06D817E81A4
:1007F00087859089DF91CF911F910F910C9402030F
:1008000080E0DF91CF911F910F9108958AE190E0F0
:100810009093A1038093A00385E090E09093A303BD
:100820008093A20380919F0390E0FC01E255FF4F6B
:10083000249186569F4FFC018491882399F090E083
:10084000880F991FFC01EA57FF4FA591B491FC0155
:10085000E458FF4F859194918FB7F894EC91E22B77
:10086000EC938FBF089580919D03882319F060E079
:100870000C945D012D980895882349F080919D0383
:10088000882319F061E00C945D012D9A08950C9471
:1008900033044F925F926F927F928F929F92AF92AA
:1008A000BF92CF92DF92EF92FF92CF93DF93CDB7BB
:1008B000DEB72D970FB6F894DEBF0FBECDBF7C011B
:1008C0000E94A90169837A838B839C834B015C011D
:1008D0001D86B0E0A0E09701AD0125523109410924
:1008E00051092D833E834F8358879701AD012750CF
:1008F00031094109510929873A874B875C87F89468
:1009000061E080919F030E945D018091A20390911C
:10091000A3038230910538F0880F991F880F991F23
:1009200005970197F1F760E080919F030E945D01B8
:1009300078943D85311107C080919E03823019F46F
:1009400081E00E943C048091A0039091A103880E55
:10095000991EA11CB11CF8940E94A9012B013C0115
:100960006B0149815A81C41AD50AF12CE12C8D8181
:100970009E81AF81B885C816D906EA06FB0634F019
:1009800080919E03823011F40E94330429853A85B8
:100990004B855C85C216D306E406F506B4F0789460
:1009A0002D960FB6F894DEBF0FBECDBFDF91CF916D
:1009B000FF90EF90DF90CF90BF90AF909F908F907F
:1009C0007F906F905F904F90089531E03D8748147D
:1009D00059046A047B0408F4BFCF91CF0E94060437
:1009E00080E891E10E94490460E871E180E090E0D4
:1009F0000E94DB0280E392E00E94490460E372E01F
:100A000080E090E00E94DB0280E392E00C944904D5
:100A10000E94060480E093E20E94490460EC78E0C2
:100A200080E090E00E94DB0280E392E00C944904B5
:100A30001F920F920FB60F9211242F933F938F9313
:100A40009F93AF93BF938091070290910802A0916A
:100A50000902B0910A023091060223E0230F2D37DC
:100A600058F50196A11DB11D20930602809307023F
:100A700090930802A0930902B0930A0280910B029E
:100A800090910C02A0910D02B0910E020196A11D51
:100A9000B11D80930B0290930C02A0930D02B093B2
:100AA0000E02BF91AF919F918F913F912F910F9027
:100AB0000FBE0F901F90189526E8230F0296A11DD8
:100AC000B11DD2CF1F920F920FB60F9211242F9308
:100AD0003F934F935F936F937F938F939F93AF93C6
:100AE000BF93EF93FF9385E192E00E944C02FF9148
:100AF000EF91BF91AF919F918F917F916F915F9196
:100B00004F913F912F910F900FBE0F901F9018950E
:100B10001F920F920FB60F9211242F938F939F93D2
:100B2000EF93FF93E0912502F09126028081E091FE
:100B30002B02F0912C0282FD1BC0908180912E022D
:100B40008F5F8F7320912F02821741F0E0912E0268
:100B5000F0E0EB5EFD4F958F80932E02FF91EF91B9
:100B60009F918F912F910F900FBE0F901F9018950E
:100B70008081F4CF1F920F920FB60F9211242F9302
:100B80003F934F935F936F937F938F939F93AF9315
:100B9000BF93CF93EF93FF93E091B402F091B5022E
:100BA000C0818091B602C8238091B7029091B802AB
:100BB000019649F08091B7029091B8020196909306
:100BC000B8028093B7028091B20281111DC0C11199
:100BD0006EC08091B7029091B8028536910578F089
:100BE0001092BB028091B7029091B8029093BE021E
:100BF0008093BD0281E08093BC028093B202109288
:100C0000B8021092B70253C08091B2028130A9F4A9
:100C1000CC2309F44CC0E091BC028E0F8093BC023F
:100C20008091B7029091B802F0E0EE0FFF1FEE54F2
:100C3000FD4F9487838782E0E0CF8091B2028230BB
:100C400009F04FC0C11122C0E091BC0281E0E03741
:100C500068F08093BB0283E08093B202E091B90216
:100C6000F091BA02309759F20995C9CF8E0F80934F
:100C7000BC028091B7029091B802F0E0EE0FFF1F26
:100C8000EE54FD4F9487838781E0B7CF8091B70200
:100C90009091B8028536910550F083E08093B202BE
:100CA000E091B902F091BA02309709F0099580916C
:100CB0009E03813021F4C11180E00E943C04FF9129
:100CC000EF91CF91BF91AF919F918F917F916F9154
:100CD0005F914F913F912F910F900FBE0F901F90FA
:100CE00018958091B202833011F7C111E0CF87CF00
:100CF000EF92FF920F931F93CF93DF93EC01F62FA8
:100D00008A01790190E080E030E0E0E0DE01AE0FA2
:100D1000B11D2C91222341F0320F2E9F800D911D89
:100D200011241C92FE1315C0332399F0532F5695AE
:100D3000850F911D632F70E00E949E0FDE01A60FAC
:100D4000B11D3C93D8013C9131110EC06C9390E0E1
:100D500080E0EF5FFE17D0F681E0DF91CF911F9129
:100D60000F91FF90EF900895D7013C91332371F3D9
:100D700080E0F3CFE5E1F2E01382128288EE93E0A7
:100D8000A0E0B0E084839583A683B78384EF91E0ED
:100D90009183808385EC90E09587848784EC90E054
:100DA0009787868780EC90E0918B808B81EC90E038
:100DB000938B828B82EC90E0958B848B86EC90E019
:100DC000978B868B118E128E138E148E82EB92E08F
:100DD0009093C8038093C70380E00E948C00109218
:100DE0009D0310929F030895CF93DF93CDB7DEB795
:100DF000E9970FB6F894DEBF0FBECDBF789484B5E7
:100E0000826084BD84B5816084BD85B5826085BD06
:100E100085B5816085BD80916E00816080936E0094
:100E20001092810080918100826080938100809186
:100E30008100816080938100809180008160809337
:100E400080008091B10084608093B1008091B000F7
:100E500081608093B00080917A00846080937A00F2
:100E600080917A00826080937A0080917A0081601C
:100E700080937A0080917A00806880937A00109243
:100E8000C100E0912502F091260212E01083E0916A
:100E90002102F09122021082E0912302F0912402BB
:100EA0008FEC808310922D02E0912902F0912A02AA
:100EB00086E08083E0912702F091280280818061A2
:100EC0008083E0912702F0912802808188608083EE
:100ED000E0912702F0912802808180688083E09170
:100EE0002702F091280280818F7D80838CE00E9410
:100EF0008C0010929D031093B0001093B10084E613
:100F00008093B3008093B4001092B2008091B2023B
:100F1000833011F41092B20284E0809370009E013D
:100F20002F5F3F4F690130E2832E912C8091B202F6
:100F3000833009F0FDC18091BB02882309F458C0B9
:100F400080E48093C6031092A5031092A40310922C
:100F5000A9031092A8031092A7031092A60310925F
:100F6000AC031092AD031092AE031092AF03109237
:100F7000C5031092C4038091C60386FDCBC1E091E6
:100F8000C703F091C8032285822F8F7B843009F03C
:100F9000B9C085859685865891098C35910508F0EC
:100FA000B1C087859089243009F049C0819748975E
:100FB00008F0A8C0818992890897089708F0A2C014
:100FC00081E08093C6038091CB039091CC039093F2
:100FD000A7038093A6038091CF039091D0039093B1
:100FE000A9038093A8038091C9039091CA0362C0AA
:100FF0001092C6038091A4039091A5039093CA0315
:101000008093C9038091A8039091A903B0E0A0E068
:101010008093CF039093D003A093D103B093D203D6
:101020008091A6039091A703B0E0A0E08093CB034A
:101030009093CC03A093CD03B093CE0384CF82547E
:1010400091098F9708F05EC043E060E28CED91E07B
:101050000E94BD03882309F455C08091AC03909190
:10106000AD034091AE035091AF03242F30E0309395
:10107000A9032093A8039C012E3E67E83607F9F4E4
:1010800083E090E09093A5038093A403852F90E0E4
:101090009093A7038093A6039092C5038092C40304
:1010A0008AE795E00E94C8008091C60380FF32C1A4
:1010B00089E090E09093A5038093A4032BC19095C1
:1010C000891310C090E09093A7038093A603852F07
:1010D000809548130CC088E090E09093A50380931E
:1010E000A403DACF3093A7032093A603F0CF8AE0BE
:1010F00090E09093A5038093A4034093A80350939A
:10110000A903CACFE091C703F091C8038285843652
:1011100009F08FC088EC91E00E94D503882309F480
:1011200088C043E060E188EC91E00E94BD03882321
:1011300009F47FC0B090AC030B2D1091AD039BE080
:10114000E92EF12C023080E21807F9F08EE0E82E4B
:10115000F12C0A3A9AE51907C1F0BDE0EB2EF12C0B
:101160000435E2E31E0789F0AFE0EA2EF12C0330EC
:10117000F1E01F0751F020E1E22EF12C03322BECBD
:10118000120719F0FCE0EF2EF12C43E260E288EC4C
:1011900091E00E94BD03882309F44BC0B126409121
:1011A000AC035091AD036091AE037091AF03CA01DF
:1011B000E4E096958795EA95E1F79093A7038093ED
:1011C000A603862F90E09093A9038093A803942F01
:1011D000962795278B2D82958F708B258F70242FC6
:1011E0002F70821719F084E08093C6033CE0E31669
:1011F000F10449F48091C60380618093C603109383
:10120000AB030093AA03971729F08091C60384606B
:101210008093C60380E390E09093C5038093C4035A
:10122000F092A503E092A4038AE397E00E94C8002D
:1012300071C0E091C703F091C8038285803209F044
:101240008BC041E06FE084EB91E00E94BD038823F6
:1012500009F482C0E091C703F091C803DF01A75BE6
:10126000BF4F8D919C910497059708F075C08091B0
:10127000AC039091AD03A091AE03B091AF039C017C
:101280002F7133273093A7032093A60355E0B6951B
:10129000A795979587955A95D1F7492F43709C014B
:1012A00033273093A9032093A8032385348525365B
:1012B000344008F04AC02091D3032F5F2093D3031A
:1012C000223018F021E02093C60390FF14C0209133
:1012D000C603322F32603093C6033091CF03509152
:1012E000D0038095831719F026602093C6033093AE
:1012F000A8035093A9034150423058F586E190E08D
:101300009093A5038093A4038FE090E09093C5038E
:101310008093C40342E050E062E072E085E192E035
:101320000E94CE018091B202833011F41092B20279
:1013300080E090E0892B09F4F9CD0E9438028823DF
:1013400009F4F1CD0E940000EECD1092D30342309B
:10135000A9F284E090E0D4CF80EA91E00E94D50326
:10136000882309F44EC0E091C703F091C803828539
:101370008A3129F08A3219F0803209F042C090E0B7
:10138000BC016150710977FDBC017595679543E01B
:1013900080EA91E00E94BD03882399F18091AC031B
:1013A0009091AD03A091AE03B091AF039C012F7754
:1013B00033273093A9032093A80337E0B695A79568
:1013C000979587953A95D1F79093A7038093A603B5
:1013D000E091C703F091C803228530E0C90101976D
:1013E00097FDC901959587959093C5038093C40394
:1013F00087E190E09093A5038093A40380EE91E0B1
:1014000015CF81E08093140289E793E09093120254
:1014100080931102109213020E94D700813009F0CC
:1014200063C0412C512C320110E0E091C703F091D0
:10143000C8039285809114028917E0F40E94D700B6
:10144000082F0E94D70001110BC0813009F04CC059
:10145000440C551C661C771C689440F81F5FE5CF50
:10146000013009F041C081113FC0440C551C661C7D
:10147000771CF4CF812F90E09093C5038093C40331
:101480004092AC035092AD036092AE037092AF03F2
:10149000842D8F7390E09093A9038093A803920109
:1014A00016E0369527951A95E1F72F71332730937B
:1014B000A7032093A603920122273071232B31F436
:1014C000805C9F4F9093A9038093A80380E853FC0E
:1014D00088E88093C60381E190E09093A503809310
:1014E000A4038FEC99E0A2CEE091C703F091C8036A
:1014F0008585968588974D9708F046C087859089A1
:101500000C970B9708F040C083E0809314028CEB9B
:1015100091E09093120280931102109213020E94A4
:10152000D700813089F50E94D70081112DC0412C50
:10153000512C320110E0E091C703F091C80392856D
:1015400080911402891708F082C00E94D700F82EFB
:101550001330B1F00E94D700082F133021F40E94FD
:10156000D700081311C091E0F91267C001110CC037
:10157000440C551C661C771C689440F81F5FDBCF39
:101580000E94D700F81631F3E091C703F091C80329
:1015900022852C3311F0243099F485859685863880
:1015A000910570F0833E910508F497C08E5891091B
:1015B00068EB7BE007E010E08236910508F491C00B
:1015C000E091C703F091C8038285823209F4EEC02E
:1015D000843209F015C184E191E00E94D50388238B
:1015E00009F40EC143E060E184E191E00E94BD0393
:1015F000882309F405C18091AC039091AD03A091BB
:10160000AE03B091AF03492F5A2F6B2F772750931A
:10161000A9034093A80399279093A7038093A60357
:1016200080E190E09093C5038093C403E5E0F0E08F
:10163000F093A503E093A4036DCEF110A5CF013084
:1016400009F0A2CF440C551C661C771C97CF812F44
:1016500090E09093C5038093C4034092AC035092F2
:10166000AD036092AE037092AF03242D30E0852D60
:10167000143200F580E88093C6033093A9032093C9
:10168000A803852D90E09093A7038093A60360FEA6
:1016900003C088E88093C603153128F08091C60303
:1016A00080618093C60383E79AE00E94C80082E1CC
:1016B00090E000CD90E89093C60357FE03C098E8F1
:1016C0009093C6033093A9032093A8038F7790E0EB
:1016D0009093A7038093A603E6CF68E670E106E047
:1016E00010E087859089243061F44D97469708F083
:1016F00067CF818992890797089708F061CF81E8C1
:1017000060CC0E940203882309F45ACF43E06CE1C5
:1017100080E091E00E94BD03882309F451CF80E866
:101720008093C6038091AC039091AD03A091AE036A
:10173000B091AF032C013D01E4E076946794579497
:101740004794EA95D1F7A2015092A9034092A803C9
:101750002C013D01F4E17694679457944794FA95EF
:10176000D1F75092A7034092A60324E030E060E056
:10177000742F7F70670F74E0569547957A95E1F75F
:1017800021503109A9F786278F709927AA27BB27EF
:10179000892B8A2B8B2B19F084E88093C603109336
:1017A000A5030093A4038CE190E0B0CD83859485DC
:1017B0008C3E9C4508F0AECD8585968508970797A9
:1017C00008F0A8CDE35BFF4F8081918108970797D0
:1017D00008F0A0CD81E08093C6038091CB03909167
:1017E000CC039093A7038093A6038091CF0390919D
:1017F000D0039093A9038093A80385E090E05ACC8E
:10180000E091C703F091C8031285812F8F7D843446
:1018100019F0163009F07CC088E291E00E94D503EF
:10182000882309F475C01630B1F481E08093C603B3
:101830008091CB039091CC039093A7038093A60350
:101840008091CF039091D0039093A9038093A80334
:1018500085E190E02FCC43E060E288E291E00E94D5
:10186000BD03882309F454C01091AE030091AF0367
:101870009091AC038091AD039093A6038093A7034E
:10188000E091C703F091C8038285843651F543E4A3
:1018900060E188E291E00E94BD038823C9F1809154
:1018A000AC039091AD030095101731F09095981707
:1018B00019F094E09093C603982F812F9093A90379
:1018C0008093A80380E390E09093C5038093C403C2
:1018D00084E190E09093A5038093A4038FE595E0C5
:1018E000A5CC802F809518130DC0812F90E0909388
:1018F000A9038093A8039092C5038092C40383E157
:1019000090E0E8CFC8019093A8038093A903F3CF98
:10191000E091C703F091C8038285843279F58CE3A6
:1019200091E00E94D503882349F143E060E18CE314
:1019300091E00E94BD03882309F11091AC038091CE
:10194000AD038095181719F084E08093C6038DE6E7
:1019500092E00E94C800812F90E09093A9038093A9
:10196000A8031092A7031092A60380E190E0909341
:10197000C5038093C4038DE190E09CCBE091C70345
:10198000F091C80382858434C1F480E591E00E941F
:10199000D503882391F043E060E280E591E00E9466
:1019A000BD03882351F080E88093C6039092C5035D
:1019B0008092C4038CE190E07DCB84E691E00E94AC
:1019C000D503E091C703F091C8039285882309F4F9
:1019D00055C0943209F052C043E060E184E691E0E2
:1019E0000E94BD03882309F449C0E091C703F09128
:1019F000C803DF01AF5ABF4F8D919C9102970497A6
:101A0000E8F580E88093C6039091AC034091AD0364
:101A1000292F342F542F52955F704F70A4E03695C4
:101A20002795AA95E1F72F709F708FE0852784276F
:101A30008227981719F084E88093C60383859485DC
:101A4000883F914128F48091C60382608093C60349
:101A50005093A6031092A70330E1439FC0011124C5
:101A6000822B9093A9038093A80380E190E0909348
:101A7000C5038093C4038AE190E01CCB88E791E022
:101A80000E94D503E091C703F091C8039285882393
:101A900081F1943271F543E060E188E791E00E94C2
:101AA000BD03882331F1E091C703F091C803EF5AD9
:101AB000FF4F8081918108970797D8F48091AC03FC
:101AC0009091AD0398279F3FA1F490E09093A903D4
:101AD0008093A80380E190E09093C5038093C403B2
:101AE00089E190E09093A5038093A40388ED94E0AE
:101AF0009DCBE091C703F091C8038285803709F040
:101B000059C041E068E08CE891E00E94BD03882361
:101B100009F450C08091AC039091AD03A091AE0345
:101B2000B091AF03892B8A2B8B2B09F043C041E185
:101B30006FE18CE891E00E94BD038823D9F14090C9
:101B4000AC035090AD036090AE037090AF034FE4D0
:101B500061E18CE891E00E94BD03882359F19091E6
:101B6000AD038091AE038927982789279093A90315
:101B70008093A8034092AC035092AD036092AE03F1
:101B80007092AF035092A7034092A6037092AB03EA
:101B90006092AA038BE190E09093A5038093A40345
:101BA00088E390E09093C5038093C40380E880931A
:101BB000C603B0CBA091C703B091C8031A968C910D
:101BC0001A97843108F42AC182E3F60111928A95AA
:101BD000E9F71A962C911A972250330B60E043E0F4
:101BE000842F90E082179307BCF4880F991FFD01A2
:101BF000E80FF91F838594858233910508F00EC1A3
:101C0000F601E80FF91F50815F5F508368171906CE
:101C100008F4682F4E5FE4CF1EAA1DAA9E012B5C1C
:101C20003F4FAE014A5C5F4FC6010E947806882391
:101C300009F4F4C082E3F60111928A95E9F7A091C4
:101C4000C703B091C8031A962C911A972250330BF0
:101C500060E044E0842F90E082179307BCF4880F83
:101C6000991FFD01E80FF91F838594858233910543
:101C700008F0D4C0F601E80FF91F50815F5F508370
:101C80006817190608F4682F4E5FE4CF1CAA1BAA38
:101C90009E012D5C3F4FAE014C5C5F4FC6010E9420
:101CA0007806882309F4BAC0E091C703F091C8030D
:101CB000828586958150990BABA84DA89C01215037
:101CC0003109AA2019F0411001C0C9019093C50340
:101CD0008093C4039C012150310995E036952795E6
:101CE0009A95E1F729AF411003C0AA2009F496C0E4
:101CF0002CA892E3299E100111246EA8699E300140
:101D00001124499E20011124A99E5001112488AF5D
:101D1000F3E0FFABF12C88AD813208F080E29DA9A1
:101D2000992309F467C021E030E03093A5032093A4
:101D3000A403E12C81019301A2016FA90E941B035E
:101D4000882309F46BC024E0F29EF0011124E454CE
:101D5000FC4F8091AC039091AD03A091AE03B09184
:101D6000AF0380839183A283B3833FA9305C3FABF1
:101D7000F39458AD505258AF69AD6F1560F680EDD1
:101D800097E00E94C800E091C703F091C803458521
:101D9000568582E3849F9001859F300D11243093F6
:101DA000B1032093B00347855089849F9001859F9C
:101DB000300D11243093B3032093B2037092B90312
:101DC0006092B8033092BB032092BA0341145104CD
:101DD000E1F05092B5034092B4033092B7032092E1
:101DE000B603A114B10409F495CAB092BB03A09242
:101DF000BA0390CAE2E0F0E0F093A503E093A403F5
:101E0000E12C85019301A30198CF7092B5036092F4
:101E1000B403B092B703A092B6037CCAE090C703A4
:101E2000F090C803F7010285063008F473CABB249A
:101E3000B39425EC3DE94CE151E810E08AE0A82E8E
:101E40008B2D90E0BC016E5F7F4F60177107DCF552
:101E5000660F771FF701E60FF71F63857485880FFC
:101E6000991FF701E80FF91F83859485A69ED0017D
:101E7000A79EB00D1124FC01EE0FFF1FEE0FFF1FF8
:101E8000EE0FFF1FAE17BF07D0F0A89EF001A99E6E
:101E9000F00D1124CB0163E0880F991F6A95E1F7DB
:101EA000E817F90770F4E2E063E971E080E091E09F
:101EB0000E94740F9B01AC012E27B394C1CFE0E0C8
:101EC000F3CFE1E0F1CF2093AC033093AD03409327
:101ED000AE035093AF039092C5038092C403109257
:101EE000A5031092A40316CADB018F939F930E944F
:101EF000840FBF91AF91A29F800D911DA39F900D64
:101F0000B29F900D112408950E948F0FA59F900DF0
:101F1000B49F900DA49F800D911D11240895A29F40
:101F2000B001B39FC001A39F700D811D1124911DAD
:101F3000B29F700D811D1124911D0895AA1BBB1B1A
:101F400051E107C0AA1FBB1FA617B70710F0A61BB9
:101F5000B70B881F991F5A95A9F780959095BC01DA
:101F6000CD010895EE0FFF1F0590F491E02D099427
:041F7000F894FFCF13
:101F740006002628236810F4012C06F401260280AA
:101F84006E000805050026E02070100E022A060ED9
:101F9400020E02004100000013002680118011305F
:101FA40002900630023002006E00EE041D00263856
:101FB400081C040E022A060E020E02003200000063
:101FC4001C0026220B220BEE026608EE02EE0280B3
:101FD4006E0000001A00269E0002049E0029029E44
:101FE400000701006E000000190026F603BC050876
:101FF40002BC050802D401004B0000001B00261F90
:10200400015D033E023E021F015D03806E0000007D
:1020140017002860095802B00458025802580200F8
:102024002D00000004002604010C0304011C070415
:10203400010C03006E0000000C0025800DC006B0EA
:10204400011005B001B00100820000000800260064
:102054002380113002900630023002006E00080521
:10206400000000006E02CE01FB01BB022C020A023A
:062074001E02610A0000DB
:00000001FF
